:040000000CEF00F011
:10000800FACF10F0FBCF11F0E9CF12F0D8ED0DF0D8
:04001800E2EF13F010
:100800000048616E64206F766572207468652064AC
:10081000657669636500596F752068617665206645
:10082000696E6973686564005072657373207365DF
:100830006C65637420746F00537461727420746803
:1008400065206578616D005375626D697420616E15
:10085000737765727300436F6E6E656374696E675C
:100860002E2E005468616E6B20796F7521005469DB
:100870006D652075702100535542204D454E550041
:10088000796573006F6B006E6F000000000E000151
:100890000001616F010E0001606F94D2000E000133
:1008A0000001686F000E0001676F60C01EF061C03C
:1008B0001FF0000E216E030E206E7EEC14F01E045D
:1008C0001F10D8A48FD00001646F020E276E0001A4
:1008D000645160C01EF061C01FF0000E216E0A0E50
:1008E000206EE0EC12F01E50300F286E0001000167
:1008F0006251BCEC16F00001646F030E276E00011C
:10090000645160C01EF061C01FF0000E216E0A0E1F
:10091000206E7EEC14F01E50300F286E0001000196
:100920006251BCEC16F00001646F040E276E0001EA
:1009300064510001656F3A0E286E00016551000197
:1009400000016251BCEC16F00001646F050E276EC9
:1009500000016451D8900001000160350001656F0D
:100960000001000161350001666F080E0001652578
:100970001E6E000E000166211F6EE1EC17F0286E5E
:10098000000100016251BCEC16F0D890000100019A
:1009900060350001646F0001000161350001656F81
:1009A000090E000164251E6E000E000165211F6EF8
:1009B000E1EC17F00001666F00016605D8A4F8D1DC
:1009C0000001646F060E276E000164510001656F1F
:1009D0007F0E286E00016551000100016251BCECE0
:1009E00016F0E6D160C01EF061C01FF0000E216E4F
:1009F000030E206E7EEC14F01E50020A1F10D8A4C5
:100A00008FD00001646F080E276E0001645160C032
:100A10001EF061C01FF0000E216E0A0E206EE0EC89
:100A200012F01E50300F286E000100016251BCEC24
:100A300016F00001646F090E276E0001645160C05A
:100A40001EF061C01FF0000E216E0A0E206E7EECBB
:100A500014F01E50300F286E000100016251BCECF2
:100A600016F00001646F0A0E276E00016451000148
:100A7000656F3A0E286E0001655100010001625158
:100A8000BCEC16F00001646F0B0E276E0001645180
:100A9000D8900001000160350001656F0001000180
:100AA00061350001666F080E000165251E6E000E9F
:100AB000000166211F6EE1EC17F0286E00010001B5
:100AC0006251BCEC16F0D8900001000160350001C5
:100AD000646F0001000161350001656F090E0001BE
:100AE00064251E6E000E000165211F6EE1EC17F0FB
:100AF0000001666F00016605D8A45AD10001646F39
:100B00000C0E276E000164510001656F7F0E286E88
:100B100000016551000100016251BCEC16F048D1A2
:100B200060C01EF061C01FF0000E216E030E206E2B
:100B30007EEC14F01F501E10D8A43AD10001646F4F
:100B40000E0E276E0001645160C01EF061C01FF0E0
:100B5000000E216E0A0E206EE0EC12F01E50300FD7
:100B6000286E000100016251BCEC16F00001646FB8
:100B70000F0E276E0001645160C01EF061C01FF0AF
:100B8000000E216E0A0E206E7EEC14F01E50300F07
:100B9000286E000100016251BCEC16F00001646F88
:100BA000100E276E000164510001656F3A0E286E29
:100BB00000016551000100016251BCEC16F000011A
:100BC000646F110E276E00016451D890000100017E
:100BD00060350001656F0001000161350001666F3D
:100BE000080E000165251E6E000E000166211F6EB5
:100BF000E1EC17F0286E000100016251BCEC16F028
:100C0000D8900001000160350001646F000100010F
:100C100061350001656F090E000164251E6E000E2E
:100C2000000165211F6EE1EC17F00001666F000105
:100C30006605D8A411D00001646F120E276E000162
:100C400064510001656F7F0E286E0001655100013F
:100C500000016251BCEC16F000010001624B632BF5
:100C60000001000160510C0A6111D8B41CD00001D0
:100C700000016051180A6111D8B415D000010001BB
:100C80006051240A6111D8B40ED0000100016051F6
:100C9000300A6111D8B407D00001000160513C0A4C
:100CA0006111D8A485D0000E00010001686F010E0B
:100CB0000001676F000E00010001636F010E00016B
:100CC000626F76D030EC14F001010101856F0101F3
:100CD00001018551220AD8A448D0000100016051C9
:100CE000180A6111D8A40BD0000E00010001616F39
:100CF000000E0001606F010EFFEC0EF05FD00001EE
:100D000000016051240A6111D8A40BD0000E00012B
:100D10000001616F0C0E0001606F010EFFEC0EF020
:100D20004DD0000100016051300A6111D8A40BD0F0
:100D3000000E00010001616F180E0001606F010ECE
:100D4000FFEC0EF03BD00001000160513C0A611144
:100D5000D8A42ED0000E00010001616F240E000106
:100D6000606F010EFFEC0EF029D0010101018551E9
:100D7000280AD8A417D000010001FD510001646FBA
:100D8000656B0001000161510001651905E1000179
:100D90000001605100016419D8B40AD0010EFFECC3
:100DA0000EF00CD0010101018551110AD8B422D0F6
:100DB0000001000167056811D8B484D70001000163
:100DC000604B612B00010001FD510001646F656BF8
:100DD00000016551800A0001666F00010001605149
:100DE0000001645D000100016151800A0001665943
:100DF000D8B054D512000001696F010E0001000146
:100E0000B96F0001695121EE34F010EE91F0110E2E
:100E1000DECFE6FFE82EFCD722EEA4F010EE6CF059
:100E2000130EDECFE6FFE82EFCD721EE45F010EEE4
:100E3000A2F0110EDECFE6FFE82EFCD722EEDBF0AB
:100E400010EE7FF0120EDECFE6FFE82EFCD7010E8B
:100E5000FFEC0EF00001696F030E236E0001695173
:100E60000001000E256E0001910E246E010E1AEC99
:100E700015F00001696F030E236E00016951000136
:100E8000000E256E00016C0E246E020E1AEC15F099
:100E90000001696F030E236E000169510001000E0D
:100EA000256E0001A20E246E030E1AEC15F000014F
:100EB000696F030E236E000169510001000E256E5B
:100EC00000017F0E246E040E1AEC15F00001696F0C
:100ED000010E276E0001695100016A6F7E0E286EB7
:100EE00000016A5100010001B929BCEC16F030EC98
:100EF00014F001010101856F010101018551220AF0
:100F0000D8A41ED00001696F010E276E000169513F
:100F100000016A6F200E286E00016A510001000175
:100F2000B951BCEC16F000010001B905D8A404D0F9
:100F30000001696F030E24D000010001B90787D7B3
:100F4000010101018551280AD8A424D00001696F4C
:100F5000010E276E0001695100016A6F200E286E94
:100F600000016A5100010001B951BCEC16F000010A
:100F70000001B951030AD8A409D00001696F010E1C
:100F800000010001B96F0001695161D70001000142
:100F9000B92B5DD7010101018551120AD8A43BD1BB
:100FA00000010001B905D8A414D0010EFFEC0EF029
:100FB000000E00010001616F010E0001606F000E64
:100FC00000010001636F010E0001626F46EC04F046
:100FD0003ED700010001B951020AD8A404D1010E84
:100FE000FFEC0EF0000E00010001B46F010E0001D5
:100FF000B36F000E00010001B86F020E0001B76F61
:10100000000E00010001B66F010E0001B56FD2D0D5
:10101000D89000010001B5350001696F00010001A1
:10102000B63500016A6F090E000169251E6E000EBB
:1010300000016A211F6EE1EC17F000016B6F0001E7
:101040006B05D8A4ACD0B7C027F0B5C01EF0B6C0B1
:101050001FF0000E216E0A0E206EE0EC12F01E5002
:10106000300F286E00010001B351BCEC16F00001F6
:101070000001B74BB82BB7C027F0B5C01EF0B6C003
:101080001FF0000E216E0A0E206E7EEC14F01E5032
:10109000300F286E00010001B351BCEC16F00001C6
:1010A0000001B74BB82BB7C027F00001696F3A0EAB
:1010B000286E0001695100010001B351BCEC16F02B
:1010C00000010001B74BB82BB7C027F0D890000142
:1010D0000001B5350001696F00010001B63500015E
:1010E0006A6F080E000169251E6E000E00016A215C
:1010F0001F6EE1EC17F0286E00010001B351BCEC4B
:1011000016F0030E00010001B72500010001B76FC2
:10111000000E00010001B8210001B86F00010001BC
:10112000B751140AB811D8A43AD0000E000100013A
:10113000B86F020E0001B76F00010001B34BB42B72
:101140002ED030EC14F001010101856F0101010185
:101150008551220AD8B423D0010101018551280A02
:10116000D8A41DD000010001FD510001696F6A6B18
:1011700000010001B65100016A1905E100010001FA
:10118000B55100016919D8B40AD0010EFFEC0EF078
:10119000000E00010001B46F010E0001B36F0001E9
:1011A0000001B351050AB411D8B4CBD70001000136
:1011B000B54BB62B00010001FD510001696F6A6B50
:1011C00000016A51800A00016B6F00010001B551F6
:1011D0000001695D00010001B651800A00016B59F0
:1011E000D8B016D716D000010001B951030AD8A40F
:1011F0002ED6010EFFEC0EF00001696F050E236E76
:1012000000016951080E256E560E246E020E1AEC6E
:1012100015F003001CD6010101018551110AD8A463
:1012200016D6010EFFEC0EF01200010EEAEC17F0DC
:101230000001BA6F010E3C6E0001BA5122EEB7F008
:1012400010EEBEF0120EDECFE6FFE82EFCD721EE48
:1012500066F010EED0F00F0EDECFE6FFE82EFCD7E2
:10126000010EFFEC0EF00C0EFFEC0EF00001BA6F59
:10127000010E00010001DF6FA6D1000EEAEC17F0AD
:101280000001BA6F010E236E0001BA510001000E79
:10129000256E0001BE0E246E020E1AEC15F0000140
:1012A000BA6F120E276E0001BA510001DFC01EF0A6
:1012B0001F6A000E216E0A0E206EE0EC12F01E5026
:1012C000300F286E020EBCEC16F00001BA6F130E40
:1012D000276E0001BA510001DFC01EF01F6A000E28
:1012E000216E0A0E206E7EEC14F01E50300F286E18
:1012F000020EBCEC16F00001BA6F010E236E000165
:10130000BA510001000E256E0001D00E246E030EAE
:101310001AEC15F000010001E051D8B40CD0000126
:10132000BA6F0E0E276E0001BA51E0C028F0030E0E
:10133000BCEC16F00FD00001BA6F0E0E276E000144
:10134000BA510001BB6F5F0E286E0001BB51030E46
:10135000BCEC16F000010001E105D8A410D000019A
:10136000BA6F140E276E0001BA510001BB6F7F0ED9
:10137000286E0001BB51030EBCEC16F00FD000012B
:10138000BA6F140E276E0001BA510001BB6F200E18
:10139000286E0001BB51030EBCEC16F0010EEAEC06
:1013A00017F030EC14F001010101856F010101011A
:1013B0008551210AD8A44ED000010001E06708D071
:1013C0000001BA6F010E00010001E16F0001BA5186
:1013D0000001000E246E0001E00E236E0001000EDD
:1013E000266E0001E10E256E00010001DF5168EC60
:1013F00016F0FF0E0001BA6FFF0EBB6F0001000177
:10140000DF510001BC6FBD6B0001BA510001BC2768
:101410000001BB510001BD230001BD51800A800FB6
:10142000010ED8B4BC5DD8A003D000010001DF07D5
:101430000001000E216E0001E00E206E0001000E82
:10144000236E0001E10E226E00010001DF5195ECD8
:1014500016F0BBD0010101018551240AD8A43CD06B
:101460000001000E246E0001E00E236E0001000E4C
:10147000266E0001E10E256E00010001DF5168ECCF
:1014800016F000010001DF510001BA6FBB6B010EC5
:101490000001BA27000EBB230001BB51800AF36E86
:1014A000800EF35C330ED8B4BA5DD8B003D000011F
:1014B0000001DF2B0001000E216E0001E00E206E06
:1014C0000001000E236E0001E10E226E00010001FA
:1014D000DF5195EC16F079D0010101018551140A14
:1014E000D8A430D00001000E246E0001E00E236E5F
:1014F0000001000E266E0001E10E256E00010001C4
:10150000DF5168EC16F0010EFFEC0EF00001BA6F2F
:10151000020E3C6E0001BA510001BA6F010E236E3B
:101520000001BA51080E256E770E246E010E1AECDA
:1015300015F022EC17F0FBEC06F00001BA6F010E7B
:101540003C6E41D0010101018551410AD8A404D06B
:101550000001BA6F410E27D0010101018551420AF5
:10156000D8A404D00001BA6F420E1DD001010101C0
:101570008551440AD8A404D00001BA6F430E13D099
:10158000010101018551480AD8A404D00001BA6FB5
:10159000440E09D0010101018551810AD8A407D068
:1015A0000001BA6F450E00010001E06F0CD001018F
:1015B00001018551120AD8A408D00001BA6F010EAA
:1015C00000010001E16F0001BA5100010001DF518B
:1015D00000010001FD5DD8B050D6000EEAEC17F016
:1015E000010EFFEC0EF00001BA6F010E236E000138
:1015F000BA51080E256E160E246E010E1AEC15F067
:101600000001BA6F010E236E0001BA51080E256E5B
:10161000470E246E020E1AEC15F0030EEDEC11F0DD
:101620000009D8B423D6010EFFEC0EF00001BA6F0A
:10163000010E236E0001BA51080E256E840E246E31
:10164000020E1AEC15F03DEC17F010D622EE91F0D8
:1016500010EE62F0130EDECFE6FFE82EFCD720EE90
:10166000E3F010EE75F00D0EDECFE6FFE82EFCD7AE
:1016700020EEF0F010EE82F00D0EDECFE6FFE82E49
:10168000FCD7010EFFEC0EF00001606F010E236E1F
:10169000000160510001000E256E0001620E246EF3
:1016A000010E1AEC15F00001606F010E236E0001AF
:1016B00060510001000E256E0001750E246E020EB1
:1016C0001AEC15F00001606F010E236E00016051ED
:1016D0000001000E256E0001820E246E030E1AEC2E
:1016E00015F00001606F0D0E276E000160510001C2
:1016F0000001FE51300F286E020EBCEC16F0000106
:10170000606F0D0E276E000160510001FFC01EF0DA
:101710001F6A000E216E0A0E206EE0EC12F01E50C1
:10172000300F286E030EBCEC16F00001606F0E0E39
:10173000276E000160510001FFC01EF01F6A000EFD
:10174000216E0A0E206E7EEC14F01E50300F286EB3
:10175000030EBCEC16F00001606F0E0E276E000148
:1017600060510001616F010E286E00016151020E8F
:10177000BCEC16F00D0EFFEC0EF00001606F0D0ECC
:10178000276E0001605100010001FE51300F286EEC
:10179000020EBCEC16F030EC14F001010101856F73
:1017A000010101018551220AD8A40FD0010E0001C8
:1017B0000001FE251E6E1F6A000E1F22000E216E04
:1017C0000A0E206E7EEC14F021D00101010185513A
:1017D000280AD8A420D000010001FE6709D000012A
:1017E000606F090E00010001FE6F00016051C5D756
:1017F000FF0E00010001FE251E6E1F6AFF0E1F2254
:10180000000E216E0A0E206E7EEC14F01E500001B8
:101810000001FE6FB2D7010101018551120AD8A45F
:10182000ACD70001606F0D0E276E00016051000102
:10183000FFC01EF01F6A000E216E0A0E206EE0EC43
:1018400012F01E50300F286E030EBCEC16F0000193
:10185000606F0E0E276E000160510001FFC01EF088
:101860001F6A000E216E0A0E206E7EEC14F01E50D0
:10187000300F286E030EBCEC16F030EC14F00101B2
:101880000101856F010101018551220AD8A40FD001
:10189000010E00010001FF251E6E1F6A000E1F22AF
:1018A000000E216E3C0E206E7EEC14F021D0010162
:1018B00001018551280AD8A420D000010001FF674A
:1018C00009D00001606F3B0E00010001FF6F0001B5
:1018D0006051A7D7FF0E00010001FF251E6E1F6A91
:1018E000FF0E1F22000E216E3C0E206E7EEC14F0C7
:1018F0001E5000010001FF6F94D7010101018551C5
:10190000120AD8A48ED70C0EFFEC0EF01200000EB7
:10191000EAEC17F00101836F010E03010301866FEA
:101920000101835122EE00F013EE71F0150EDECFAF
:10193000E6FFE82EFCD722EE15F013EE00F0150EB0
:10194000DECFE6FFE82EFCD722EE2AF013EE15F0EC
:10195000150EDECFE6FFE82EFCD721EE12F013EED7
:101960004FF0110EDECFE6FFE82EFCD722EE7EF020
:1019700013EE2AF0130EDECFE6FFE82EFCD721EEA1
:1019800023F013EE60F0110EDECFE6FFE82EFCD759
:1019900021EE00F013EE3DF0120EDECFE6FFE82E52
:1019A000FCD7010EFFEC0EF00101836F010E236ED8
:1019B000010183510301030E256E0301710E246E94
:1019C000010E1AEC15F00101836F010E236E010167
:1019D00083510301030E256E0301000E246E020ED7
:1019E0001AEC15F00101836F010E236E0101835182
:1019F0000301030E256E0301150E246E030E1AEC6F
:101A000015F00101836F010E236E01018351030163
:101A1000030E256E0301710E246E040E1AEC15F0F0
:101A200030EC14F0140AD8A4FBD7010EFFEC0EF032
:101A30000101836F010E236E010183510301030E27
:101A4000256E03014F0E246E010E1AEC15F00101F4
:101A5000836F030E236E010183510301030E256E74
:101A600003012A0E246E020E1AEC15F00101836F99
:101A7000030E236E010183510301030E256E030142
:101A8000600E246E030E1AEC15F00101836F030E35
:101A9000236E010183510301030E256E03013D0EE8
:101AA000246E040E1AEC15F00101836F010E276EEF
:101AB000010183510101846F7E0E286E0101845162
:101AC000030103018629BCEC16F030EC14F001018F
:101AD0000101856F010101018551220AD8A41ED0A0
:101AE0000101836F010E276E010183510101846F93
:101AF000200E286E01018451030103018651BCECC4
:101B000016F0030103018605D8A404D00101836FF8
:101B1000030E24D003010301860787D701010101C9
:101B20008551280AD8A424D00101836F010E276EA5
:101B3000010183510101846F200E286E010184513F
:101B4000030103018651BCEC16F003010301865129
:101B5000030AD8A409D00101836F010E0301030118
:101B6000866F0101835161D703010301862B5DD785
:101B7000010101018551120AD8A457D703010301BD
:101B80008605D8A403D026EC0BF04FD70301030140
:101B90008651020AD8A403D05FEC11F046D70301A6
:101BA00003018651030AD8A440D790EC13F03DD727
:101BB0000600EACF13F0E1CF14F0E2CF15F0D9CF51
:101BC00016F0DACF17F0F3CF18F0F4CF19F0F6CF04
:101BD0001AF0F7CF1BF0F8CF1CF0F5CF1DF09EA246
:101BE0002DD09E923A4A3B2A412A3A50640A3B1031
:101BF000D8A424D0000E3B6E000E3A6E402A40500E
:101C00003C0AD8A41BD00E6E000E406E0E503F2A28
:101C10003F503C0AD8A412D0010E3E24016E026A45
:101C2000000E0222000E046E0C0E036ECCEC14F0BB
:101C300001503E6E0E6E000E3F6E0E500B0E416454
:101C40008FD03C04D8A48CD00E6E0D0E0A6E0E50B0
:101C50003EC001F0026A000E046E0A0E036E38ECFC
:101C600013F00150300F0B6E010EE0EC16F00E6E0B
:101C70000E0E0A6E0E503EC001F0026A000E046E97
:101C80000A0E036ECCEC14F00150300F0B6E010EF7
:101C9000E0EC16F00E6E0F0E0A6E0E500F6E3A0E3E
:101CA0000B6E0F50010EE0EC16F00E6E100E0A6E69
:101CB0000E503FC001F0026A000E046E0A0E036E61
:101CC00038EC13F00150300F0B6E010EE0EC16F003
:101CD0000E6E110E0A6E0E503FC001F0026A000E29
:101CE000046E0A0E036ECCEC14F00150300F0B6E34
:101CF000010EE0EC16F00E6E120E0A6E0E500F6E14
:101D00003A0E0B6E0F50010EE0EC16F00E6E130E35
:101D10000A6E0E5040C001F0026A000E046E0A0EF8
:101D2000036E38EC13F00150300F0B6E010EE0EC37
:101D300016F00E6E140E0A6E0E5040C001F0026ACC
:101D4000000E046E0A0E036ECCEC14F00150300F3E
:101D50000B6E010EE0EC16F00E6E000E416E0E5092
:101D600000010001FE513E622DD000010001FF5133
:101D70003F6228D0010E2FEC10F00E6E010E066EA1
:101D80000E50080E086E6E0E076E020E63EC15F014
:101D90000E6E010E066E0E50080E086E010E076ED6
:101DA000030E63EC15F00E6E010E066E0E50080E5B
:101DB000086E630E076E040E63EC15F054EC17F01A
:101DC00054EC17F01DC0F5FF1CC0F8FF1BC0F7FF57
:101DD0001AC0F6FF19C0F4FF18C0F3FF17C0DAFFEE
:101DE00016C0D9FF15C0E2FF14C0E1FF13C0EAFF1F
:101DF00012C0E9FF11C0FBFF10C0FAFF1100E8CFCD
:101E000022F083968394206A22AE01D0202A010E0C
:101E1000201620322032835020187F0B2018836E2A
:101E200022C020F0060E216ED8902032212EFCD741
:101E3000010E2016203A2046204683502018BF0B62
:101E40002018836E22C020F0050E216ED89020321B
:101E5000212EFCD7010E2016203A20468350201850
:101E6000DF0B2018836E22C020F0203A0F0E2016C0
:101E7000010E2016203A83502018EF0B2018836E95
:101E800000F000F000F000F000F000F000F000F0D2
:101E900000F000F08386A9EC17F0839622C020F0B2
:101EA000D8902032D8902032D8902032010E2016BF
:101EB00020322032835020187F0B2018836E22C0DE
:101EC00020F0D8902032D8902032010E2016203AEF
:101ED0002046204683502018BF0B2018836E22C056
:101EE00020F0D8902032010E2016203A2046835050
:101EF0002018DF0B2018836E22C020F0010E201660
:101F0000203A83502018EF0B2018836E00F000F069
:101F100000F000F000F000F000F000F000F000F041
:101F20008386A9EC17F08396B7EC17F01200E8CF80
:101F300022F083968384206A22AE01D0202A010EEB
:101F4000201620322032835020187F0B2018836EF9
:101F500022C020F0060E216ED8902032212EFCD710
:101F6000010E2016203A2046204683502018BF0B31
:101F70002018836E22C020F0050E216ED8902032EA
:101F8000212EFCD7010E2016203A2046835020181F
:101F9000DF0B2018836E22C020F0203A0F0E20168F
:101FA000010E2016203A83502018EF0B2018836E64
:101FB00000F000F000F000F000F000F000F000F0A1
:101FC00000F000F08386A9EC17F0839622C020F081
:101FD000D8902032D8902032D8902032010E20168E
:101FE00020322032835020187F0B2018836E22C0AD
:101FF00020F0D8902032D8902032010E2016203ABE
:102000002046204683502018BF0B2018836E22C024
:1020100020F0D8902032010E2016203A204683501E
:102020002018DF0B2018836E22C020F0010E20162E
:10203000203A83502018EF0B2018836E00F000F038
:1020400000F000F000F000F000F000F000F000F010
:102050008386A9EC17F08396B7EC17F01200E8CF4F
:1020600005F083968394036A05AE01D0032A010E1E
:10207000031603320332835003187F0B0318836E59
:1020800005C003F0060E046ED8900332042EFCD770
:10209000010E0316033A0346034683500318BF0B91
:1020A0000318836E05C003F0050E046ED89003324A
:1020B000042EFCD7010E0316033A0346835003187F
:1020C000DF0B0318836E05C003F0033A0F0E0316EF
:1020D000010E0316033A83500318EF0B0318836EA7
:1020E00000F000F000F000F000F000F000F000F070
:1020F00000F000F08386C5EC17F0839605C003F06E
:10210000D8900332D8900332D8900332010E0316D0
:1021100003320332835003187F0B0318836E05C00C
:1021200003F0D8900332D8900332010E0316033A1D
:102130000346034683500318BF0B0318836E05C084
:1021400003F0D8900332010E0316033A034683507E
:102150000318DF0B0318836E05C003F0010E03168E
:10216000033A83500318EF0B0318836E00F000F05E
:1021700000F000F000F000F000F000F000F000F0DF
:102180008386C5EC17F08396D3EC17F01200E8CFE6
:1021900005F083968384036A05AE01D0032A010EFD
:1021A000031603320332835003187F0B0318836E28
:1021B00005C003F0060E046ED8900332042EFCD73F
:1021C000010E0316033A0346034683500318BF0B60
:1021D0000318836E05C003F0050E046ED890033219
:1021E000042EFCD7010E0316033A0346835003184E
:1021F000DF0B0318836E05C003F0033A0F0E0316BE
:10220000010E0316033A83500318EF0B0318836E75
:1022100000F000F000F000F000F000F000F000F03E
:1022200000F000F08386C5EC17F0839605C003F03C
:10223000D8900332D8900332D8900332010E03169F
:1022400003320332835003187F0B0318836E05C0DB
:1022500003F0D8900332D8900332010E0316033AEC
:102260000346034683500318BF0B0318836E05C053
:1022700003F0D8900332010E0316033A034683504D
:102280000318DF0B0318836E05C003F0010E03165D
:10229000033A83500318EF0B0318836E00F000F02D
:1022A00000F000F000F000F000F000F000F000F0AE
:1022B0008386C5EC17F08396D3EC17F0120022EE5C
:1022C000C9F010EE60F0120EDECFE6FFE82EFCD76C
:1022D00021EE56F010EE72F0100EDECFE6FFE82E83
:1022E000FCD7010EFFEC0EF02B6E010E236E2B506F
:1022F0000001000E256E0001600E246E010E1AEC26
:1023000015F02B6E010E236E2B500001000E256E72
:102310000001720E246E020E1AEC15F00D0EFFEC89
:102320000EF02B6E100E276E2B500001FDC01EF01C
:102330001F6A000E216E0A0E206EE0EC12F01E5095
:10234000300F286E020EBCEC16F02B6E110E276EAD
:102350002B500001FDC01EF01F6A000E216E0A0EF8
:10236000206E7EEC14F01E50300F286E020EBCEC76
:1023700016F00D0EFFEC0EF030EC14F0010101012F
:10238000856F010101018551220AD8A404D0000102
:102390000001FD2914D0010101018551280AD8A4AA
:1023A00012D000010001FD6707D02B6E000E000166
:1023B0000001FD6F2B50B5D700010001FD050001A4
:1023C0000001FD6FAED7010101018551120AD8A4A9
:1023D000A8D70C0EFFEC0EF01200E8CF2BF0000196
:1023E000606F0A0E236E00016051080E256E870E85
:1023F000246E2B501AEC15F00001606F0A0E236E4C
:1024000000016051080E256E800E246E2B281AECF8
:1024100015F00001606F080E276E00016051000189
:10242000616F7E0E286E000161512B50000142B099
:10243000010FBCEC16F030EC14F001010101856FC6
:10244000010101018551220AD8A418D00001606F52
:10245000080E276E000160510001616F200E286E8A
:10246000000161512B50000142B0010FBCEC16F08D
:1024700000010001427022EC17F0CBD701010101ED
:102480008551280AD8A418D00001606F080E276E65
:10249000000160510001616F200E286E0001615142
:1024A000020E000142B0010FBCEC16F022EC17F056
:1024B000000100014270ADD7010101018551120AEE
:1024C000D8A4A7D7000142A002D0010E01D0000E6F
:1024D00012002A2A2A2A2A2A2A2A2A2A2A2A2A2A9E
:1024E0002A2A2A2A2A2A002A202020202057656CFE
:1024F000636F6D652020202020202A002A20205094
:1025000072657373206D656E75206B657920202A66
:10251000002A2A2A2A2A2A2A2A2A2A2A2A2A2A2A45
:102520002A2A2A2A2A002A2020202020457A2D65BE
:1025300078616D6572202020202A002A202020202A
:102540004D4351202053797374656D2020202A005B
:1025500020312D5365742074696D65207065726932
:102560006F640053657420746865206578616D2020
:1025700074696D653A00312D7669657720616C6C00
:1025800020616E7377657273005175657374696F3E
:102590006E206E756D6265723A200053657420740A
:1025A0006865206E756D626572206F6600332D530D
:1025B00061766520616E64205375626D69740000F8
:1025C000226E000E246E22502150800AF36E800E7F
:1025D000F35C000ED8B4205CD8B008D0206C211E6B
:1025E000D8B0212A226E010E246E22501F50800A7C
:1025F000F36E800EF35C000ED8B41E5CD8B006D02B
:102600001E6C1F1ED8B01F2A010E241A000E266E43
:10261000000E256E21502010D8B41ED0226E010E5F
:10262000236E225004D0D89020362136232A21AEA2
:10263000FAD7D8902536263620501E5C21501F58D8
:10264000D8A005D020501E5E21501F5A2580D8905A
:1026500021322032232EEDD72450D8B404D0256C5B
:10266000261ED8B0262A25C01EF026C01FF0120054
:10267000056E000E076E05500450800AF36E800E42
:10268000F35C000ED8B4035CD8B008D0036C041E11
:10269000D8B0042A056E010E076E05500250800A5C
:1026A000F36E800EF35C000ED8B4015CD8B006D097
:1026B000016C021ED8B0022A010E071A000E096E24
:1026C000000E086E04500310D8B41ED0056E010E23
:1026D000066E055004D0D89003360436062A04AEA0
:1026E000FAD7D890083609360350015C04500258D6
:1026F000D8A005D00350015E0450025A0880D8903B
:1027000004320332062EEDD70750D8B404D0086C3B
:10271000091ED8B0092A08C001F009C002F0120051
:1027200020EE2CF011EE75F00E0EDECFE6FFE82E57
:10273000FCD7010EFFEC0EF00001E26F010E236EDC
:102740000001E2510101010E256E0101750E246E9A
:10275000010E1AEC15F0020EEDEC11F00009D8B4E0
:1027600030D0010EFFEC0EF00001E26F030E236E7D
:102770000001E251080E256E280E246E020E1AEC9E
:1027800015F00001E26F030E236E0001E251080E06
:10279000256E380E246E030E1AEC15F030EC14F092
:1027A00001010101856F010101018551120AD8A4BF
:1027B000D8D7000E236E050E226E6BEC17F015ECC9
:1027C00009F012000101856B426A00EE3AF0080E32
:1027D000EE6AE806FDE1D20EF66E240EF76E000EEC
:1027E000F86E02EE00F010EEEDF00900F5CFEEFF0E
:1027F000E550E150FAE15A0EF66E2C0EF76E000E1F
:10280000F86E01EE00F010EE75F00900F5CFEEFF66
:10281000E550E150FAE1180EF66E2F0EF76E000E3D
:10282000F86E00EEE3F010EE1DF00900F5CFEEFFBC
:10283000E550E150FAE1E40EF66E2F0EF76E000E51
:10284000F86E00EE2CF010EE0EF00900F5CFEEFF62
:10285000E550E150FAE1000EF86E0001F9EF17F0D3
:102860000F0E816E81500F0AD8B4FCD7226E010E74
:10287000246E22503ED024C081FF8150110AD8B46A
:102880002CD08150140AD8B428D08150220AD8B450
:1028900024D08150210AD8B420D08150240AD8B441
:1028A0001CD08150280AD8B418D08150410AD8B41D
:1028B00014D08150420AD8B410D08150440AD8B400
:1028C0000CD08150480AD8B408D08150810AD8B4BD
:1028D00004D08150120AD8A40AD081CF23F022EC70
:1028E00017F022EC17F022EC17F0235006D0D89006
:1028F0002436080E2464BFD7000E1200226E000E8C
:10290000246E22501F50800AF36E800EF35C000E7E
:10291000D8B41E5CD8B008D01E6C1F1ED8B01F2AB9
:10292000226E010E246E22502150800AF36E800E1A
:10293000F35C000ED8B4205CD8B004D0206C211E0B
:10294000D8B0212A21502010D8B41AD0226E010EFE
:10295000236E225004D0D89020362136232A21AE6F
:10296000FAD720501E5C21501F58D8A004D0205008
:102970001E5E21501F5AD89021322032232EF1D7CB
:102980002450D8B404D01E6C1F1ED8B01F2A1EC0FD
:102990001EF01FC01FF01200056E000E076E0550DE
:1029A0000250800AF36E800EF35C000ED8B4015C16
:1029B000D8B008D0016C021ED8B0022A056E010EF4
:1029C000076E05500450800AF36E800EF35C000E13
:1029D000D8B4035CD8B004D0036C041ED8B0042A69
:1029E00004500310D8B41AD0056E010E066E0550BF
:1029F00004D0D89003360436062A04AEFAD7035022
:102A0000015C04500258D8A004D00350015E045069
:102A1000025AD89004320332062EF1D70750D8B4A8
:102A200004D0016C021ED8B0022A01C001F002C01D
:102A300002F01200E8CF26F00DD023507F0F08D00F
:102A40002350BF0F05D02350930F02D02350D30F34
:102A5000276E0DD02650010AD8B4EFD7030AD8B498
:102A6000EFD7010AD8B4EFD7070AD8B4EFD7275069
:102A7000FFEC0EF014D024C0F6FF25C0F7FFF86A73
:102A8000070EF76403D00800F55005D0F6CFE9FF34
:102A9000F7CFEAFFEF5097EC0FF0244A252A24C025
:102AA000F6FF25C0F7FFF86A070EF76403D00800A9
:102AB000F55005D0F6CFE9FFF7CFEAFFEF50000958
:102AC000D8B41200D8D7E8CF09F00DD006507F0F48
:102AD00008D00650BF0F05D00650930F02D0065005
:102AE000D30F0A6E0DD00950010AD8B4EFD7030AEC
:102AF000D8B4EFD7010AD8B4EFD7070AD8B4EFD7C4
:102B00000A502FEC10F014D007C0F6FF08C0F7FFF2
:102B1000F86A070EF76403D00800F55005D0F6CF29
:102B2000E9FFF7CFEAFFEF50C7EC10F0074A082A99
:102B300007C0F6FF08C0F7FFF86A070EF76403D076
:102B40000800F55005D0F6CFE9FFF7CFEAFFEF50C8
:102B50000009D8B41200D8D79598959A959C959E5F
:102B60008398839A839C839E959495968394839669
:102B7000B7EC17F0839E839C838A8388838600F05A
:102B800000F000F000F08396B7EC17F0838600F0B9
:102B900000F000F000F083967CEC17F0838600F0E4
:102BA00000F000F000F083967CEC17F083988386A9
:102BB000A9EC17F08396B7EC17F0280EFFEC0EF097
:102BC0000C0EFFEC0EF0010EFFEC0EF00E0EFFEC03
:102BD0000EF00C0EFFEC0EF01200F00E936E0F0EC6
:102BE000816EACEC15F09BEC17F09BEC17F09BECB6
:102BF00017F00C0EFFEC0EF09C0ECB6E4F0ECA6E53
:102C00009D829E92F28CF29E000E3B6E000E3A6EFA
:102C1000236E000E3E6E2350236E000E3F6E235037
:102C2000236E000E406E2350236E000E416E235023
:102C3000236E0A0E246E23502428D8B40DD0FFEC46
:102C400017F024C01EF01F6A236E000E206E235062
:102C500004EC17F0242AF0D7120020332D46696EB9
:102C6000616C797A652073657475700053656C6565
:102C7000637420616E206F7074696F6E0020322D56
:102C8000536574207175657374696F6E7300536555
:102C90006C65637420616E206F7074696F6E0032B2
:102CA0002D7669657720616C6C20666C61677300B6
:102CB0004D4351207175657374696F6E733A2000CE
:102CC000596F757220416E737765723A202000004B
:102CD000E8CF29F0FFEC17F0D8902934276E286A46
:102CE0002836080E27241E6E000E28201F6E23C0D3
:102CF000D9FF24C0DAFFDF50206E04EC17F0FFECA0
:102D000017F0D8902934276E286A2836090E272410
:102D10001E6E000E28201F6E25C0D9FF26C0DAFFC8
:102D2000DF50206E04EC17F01200E8CF26F0D890A8
:102D30002634246E256A2536080E24241E6E000EC5
:102D400025201F6EE1EC17F020C0D9FF21C0DAFF6B
:102D5000DF6ED8902634246E256A2536090E242489
:102D60001E6E000E25201F6EE1EC17F022C0D9FF69
:102D700023C0DAFFDF6E1200E8CF29F00DD0275014
:102D80007F0F08D02750BF0F05D02750930F02D0D8
:102D90002750D30F2A6E0DD02950010AD8B4EFD78F
:102DA000030AD8B4EFD7010AD8B4EFD7070AD8B4CA
:102DB000EFD72A50FFEC0EF0285097EC0FF01200DE
:102DC000E8CF0CF00DD00A507F0F08D00A50BF0F8B
:102DD00005D00A50930F02D00A50D30F0D6E0DD0BC
:102DE0000C50010AD8B4EFD7030AD8B4EFD7010AC0
:102DF000D8B4EFD7070AD8B4EFD70D502FEC10F0A6
:102E00000B50C7EC10F01200216E000E226E215004
:102E10001EC0A9FF20C0A8FFA69EA69CA684000EE7
:102E2000F2BE010E226EF29E550EA76EAA0EA76E7E
:102E3000A682A6B2FED722B002D0F29E01D0F28EB8
:102E4000A6941200000E216E000E206E0FD0000E10
:102E50001F6E000E1E6E02D01E4A1F2A990E1E5CA7
:102E6000020E1F58D8A0F8D7204A212A190E205C3C
:102E7000000E2158D8B01200EAD71E6E000E216E47
:102E80001E500ED0000E206E000E1F6E02D01F4A84
:102E9000202A370E1F5C820E2058D8A0F8D7212A8E
:102EA000040E2164EFD71200016E000E046E015073
:102EB0000ED0000E036E000E026E02D0024A032AEC
:102EC000370E025C820E0358D8A0F8D7042A040EED
:102ED0000464EFD712002350800AF36E800EF35C77
:102EE000010ED8B4225CD8A006D022EC17F022063E
:102EF000D8A02306F0D712001E6E000E1F6E1E50C3
:102F000001D01F2AF60E1F64FCD700F000F000F07D
:102F100000F000F000F01200486F7572732020205E
:102F200020203A20004D696E757465732020203A88
:102F300020003C011E00000E1F6E000E1E6E02D00F
:102F40001E4A1F2A860E1E5C060E1F58D8B012009D
:102F5000F7D700F000F000F000F000F000F000F013
:102F600000F000F000F000F000F000F01200000EA1
:102F70001F6E000E1E6E02D01E4A1F2A3D0E1E5CE2
:102F8000030E1F58D8B01200F7D700F000F000F081
:102F900000F000F000F000F000F000F000F000F0B1
:102FA00000F000F01200000E026E000E016E02D062
:102FB000014A022A3D0E015C030E0258D8B01200ED
:102FC000F7D71EC0A9FFA69CA69EA68000F000F021
:102FD000A8501200E8CF1EF01EB002D0F29E01D021
:102FE000F28E120041726520796F752073757265DB
:102FF0003F00EDEC15F087EC0CF00CEF00F0A6A212
:043000001200FDD7E6
:020000040020DA
:08000000FFFFFFFFFFFFFFFF00
:020000040030CA
:0E000000000C191EFF8181FF0FC00FE00F40A2
:00000001FF
